:020000040000FA
:1000000080F1FF1FFF0500000B0600000D06000039
:1000100000000000000000000000000000000000E0
:100020000000000000000000000000000F060000BB
:100030000000000000000000110600001306000090
:100040001506000015060000150600001506000044
:100050001506000015060000150600001506000034
:100060001506000015060000150600001506000024
:100070001506000015060000150600001506000014
:10008000150600001506000015060000E10400003A
:1000900015060000150600001506000015060000F4
:1000A00015060000150600001506000015060000E4
:1000B00015060000150600001506000015060000D4
:1000C00000F002F800F03EF80CA030C80838241800
:1000D0002D18A246671EAB4654465D46AC4201D180
:1000E00000F030F87E460F3E0FCCB6460126334274
:1000F00000D0FB1AA246AB4633431847180800004D
:1001000038080000103A02D378C878C1FAD85207EC
:1001100001D330C830C101D504680C6070470000BD
:100120000023002400250026103A01D378C1FBD813
:10013000520700D330C100D50B6070471FB51FBDFB
:1001400010B510BD00F0B6FB1146FFF7F7FF00F049
:1001500009F800F0CEFB03B4FFF7F2FF03BC00F098
:10016000D3FB000000F02AFA00221146104600F0EE
:100170007FF8012211460A2000F07AF800220121BE
:100180000B2000F075F801221146282000F070F8CD
:1001900000220121292000F06BF800BF002000F0B0
:1001A00010F92A49086008460068002826D1012174
:1001B0000A2000F0D3F801210B2000F0CFF8012134
:1001C000282000F0CBF80121292000F0C7F8C82032
:1001D00000F03EF800210A2000F0C0F800210B20BA
:1001E00000F0BCF80021282000F0B8F800212920F8
:1001F00000F0B4F8C82000F02BF8CFE701210A2066
:1002000000F0ACF800210B2000F0A8F80121282014
:1002100000F0A4F80021292000F0A0F8C82000F088
:1002200017F800210A2000F099F801210B2000F0B6
:1002300095F80021282000F091F80121292000F0F4
:100240008DF8C82000F004F8A8E7000000F0FF1FB8
:10025000002108E0002201E0531C9AB2034B9A42AD
:10026000FADB4B1C99B28142F4DB70471027000087
:1002700030B500291ED143119B005F4CE3585B69E8
:10028000C506ED0E0124AC40A3434411A4005A4D11
:100290002C59636143119B002C46E3589B69C506AA
:1002A000ED0E0124AC40A3434411A400524D2C593F
:1002B000A3612FE043119B004F4CE3585B69C506D7
:1002C000ED0E0124AC4023434411A4004A4D2C59A7
:1002D0006361002A0FD143119B002C46E3581B6831
:1002E000C506ED0E0124AC40A3434411A400424DC9
:1002F0002C5923600EE043119B003F4CE3581B68D0
:10030000C506ED0E0124AC4023434411A4003A4D30
:100310002C59236030BD10B500290FD14211920035
:10032000354B9A585269C406E40E0123A3409A4300
:1003300043119B00304CE3585A610EE04211920089
:100340002D4B9A585269C406E40E0123A3401A4368
:1003500043119B00284CE3585A6110BD10B5002989
:100360000FD142119200244B9A581268C406E40E31
:100370000123A3409A4343119B001F4CE3581A608A
:100380000EE0421192001C4B9A581268C406E40E0B
:100390000123A3401A4343119B00174CE3581A60F2
:1003A00010BD41118900144A5158C968C306DB0EBB
:1003B00001229A401143421192000F4B9A58D1608A
:1003C00070470146481180000B4A10588069CB06DF
:1003D000DB0E01229A4090434A119200064B9A5834
:1003E0009061481180001A4610580069CA06D20E62
:1003F000D040C007C00F704710F0FF1F70470000CB
:10040000FFFFFFFFFFFFFFFFFFFFFFFFFFFFFEFEFE
:10041000664840698021084364494861644800682F
:1004200007210843624908600846C0684021084324
:100430005F49C8600846C068102108435C49C8602D
:1004400008464069402108435949486108464069C7
:1004500010210843564948610846C06940210843B5
:100460005349C8610846C069102108435049C86112
:100470000846406A402108434D4948620846406AA0
:10048000102108434A4948624A480088086149489F
:10049000418847488161474881884548016245480D
:1004A000C1884348816200680821084340490860C8
:1004B000704742003F4B99521A4612883C4B1A61D2
:1004C0003C4A53883A4A93613A4A9388384A1362BD
:1004D000384AD388364A9362704737490860704774
:1004E00010B53348C06880210840C009002811D0E9
:1004F0002F48C0682E48C06848402D49C86008464B
:1005000001692C48008809182948016100202A49FE
:10051000096888472648406980210840C0090028AA
:1005200011D0234840692248406948402049486129
:10053000084681691F48408809181D4881610120CB
:100540001D49096888471A48C06980210840C009C8
:10055000002811D01648C0691548C06948401449A0
:10056000C8610846016A134880880918104801626A
:1005700002201149096888470D48406A80210840D7
:10058000C009002811D00A48406A0948406A48401A
:10059000074948620846816A0648C0880918044825
:1005A0008162032004490968884710BD0080044027
:1005B00000A0034004F0FF1F0CF0FF1F0C48007860
:1005C000062108430A49087008464078E02188431C
:1005D0000749487000BF06480079402108400028BC
:1005E000F9D00448406A044908400249486270470B
:1005F0000040064000800440FFFFEFCE70470948EE
:1006000080470948804709480047FEE7FEE7FEE7C4
:10061000FEE7FEE7FEE7000005480649044A064BF0
:10062000704700003D060000FD050000C10000000D
:1006300080F0FF1F80F1FF1F80F0FF1F3E483F4901
:10064000888001204870232008703D484078202190
:1006500008433B49487000203A494862062038491F
:100660000870084640782F2108402021084334496B
:10067000487000203449087000BF314800791021CB
:1006800008400028F9D000BF2D4800790C2108400F
:100690000028F9D1704770B529480078C02108407A
:1006A000002821D12648007804210840002815D1CF
:1006B000264C2348007838210840C1080120884092
:1006C000C5B22946204600F045F804461E48007889
:1006D00004210840002803D0640901E00124E40358
:1006E00005200002444310E015480078C02108406E
:1006F000402801D1440208E011480078C021084098
:10070000802801D1114C00E070BD0D484078E021F7
:10071000084041092046C84004460A48406A03226E
:1007200012071040000F411C204600F013F8084942
:10073000086000BFE8E7000003E800000020054073
:1007400000400640008004400050064000127A003D
:100750001CF0FF1F002203098B422CD3030A8B429B
:1007600011D300239C464EE003460B433CD40022A9
:1007700043088B4231D303098B421CD3030A8B42BB
:1007800001D394463FE0C3098B4201D3CB01C01A89
:10079000524183098B4201D38B01C01A5241430954
:1007A0008B4201D34B01C01A524103098B4201D342
:1007B0000B01C01A5241C3088B4201D3CB00C01AAF
:1007C000524183088B4201D38B00C01A5241430827
:1007D0008B4201D34B00C01A5241411A00D201464C
:1007E0005241104670475DE0CA0F00D049420310E5
:1007F00000D34042534000229C4603098B422DD334
:10080000030A8B4212D3FC22890112BA030A8B42DB
:100810000CD3890192118B4208D3890192118B422A
:1008200004D389013AD0921100E08909C3098B42AF
:1008300001D3CB01C01A524183098B4201D38B01F2
:10084000C01A524143098B4201D34B01C01A524195
:1008500003098B4201D30B01C01A5241C3088B42DA
:1008600001D3CB00C01A524183088B4201D38B00C5
:10087000C01A5241D9D243088B4201D34B00C01A4F
:100880005241411A00D20146634652415B10104664
:1008900001D34042002B00D54942704763465B10AC
:1008A00000D3404201B50020C046C04602BD70479B
:1008B00070477047754600F023F8AE46050069465C
:1008C0005346C008C000854618B020B5FFF7A4FE07
:1008D00060BC00274908B6460026C0C5C0C5C0C5D3
:1008E000C0C5C0C5C0C5C0C5C0C5403D49008D46D6
:1008F00070470446C046C0462046FFF72CFC000067
:100900000048704720F0FF1F01491820ABBEFEE7EA
:10091000260002003409000000F0FF1F2000000044
:10092000040100005409000020F0FF1F60010000D6
:100930002001000000000000000000000000000096
:100940000000000000F00F4040F00F4080F00F402A
:040950000000400162
:04000005000000C136
:00000001FF
